:020000040800F2
:100000000028002069060008F9050008FF0500081F
:10001000050600080B060008110600080000000095
:1000200000000000000000000000000017060008AB
:1000300023060008000000002F0600083B06000809
:10004000B1060008B1060008B1060008B1060008B4
:10005000B1060008B1060008B1060008B1060008A4
:10006000B1060008B1060008B1060008B106000894
:10007000B1060008B1060008B1060008B106000884
:10008000B1060008B1060008B1060008B106000874
:10009000B1060008B1060008B1060008B106000864
:1000A000B1060008B1060008B1060008B106000854
:1000B000B1060008B106000800000000B106000803
:1000C000B10600080000000000000000B1060008B2
:1000D00000000000B106000849060008000000000A
:1000E000B1060008B1060008B106000800000000D3
:1000F0000000000000000000000000000000000000
:0C01000000000000000000005FF808F1A3
:10010C0010B5054C237833B9044B13B10448AFF345
:10011C0000800123237010BD0C00002000000000A3
:10012C00F428000808B5034B1BB103490348AFF38F
:10013C00008008BD0000000010000020F42800081A
:10014C0010F8012B11F8013B012A28BF9A42F7D075
:10015C00D01A7047034613F8012B002AFBD1181A4A
:10016C000138704780B584B000AF78607B681B683D
:10017C002A4A93424DD12A4B1B78002B12D10023D3
:10018C00FB6007E0274AFB68134400221A70FB68E7
:10019C000133FB60FB68632BF4DD01222021224834
:1001AC0001F030F8214B1B780D2B0BD01C4B1B781E
:1001BC005A1CD1B21A4A11701A461C4B1978194B99
:1001CC00995417E0164B00221A70194B01221A7021
:1001DC00642302221749184801F040FD17491148C1
:1001EC00FFF7AEFF0346002B04D1002220210E485E
:1001FC0001F008F801220D490F4801F0BAFD0B4837
:10020C00FFF7A8FF03469AB2642308490A4801F095
:10021C0025FD00BF1037BD4680BD00BF0044004027
:10022C00280000202C00002000080140C000002005
:10023C00290000200C290008C40000201029000807
:10024C0080B582B000AF00F02FFA00F013F800F088
:10025C00C9F800F05FF800F09BF80122034904484C
:10026C0001F087FD00237B60FEE700BFC00000208B
:10027C00C400002080B594B000AF07F128032822F9
:10028C000021184602F028FB07F1140300221A6023
:10029C005A609A60DA601A613B1D00221A605A603B
:1002AC009A60DA600223BB620123BB631023FB63F9
:1002BC0000237B6407F12803184600F0BBFF0346BC
:1002CC00002B01D000F0CCF80F237B610023BB6125
:1002DC000023FB6100233B6200237B6207F11403C4
:1002EC000021184601F026FA0346002B01D000F03D
:1002FC00B7F802237B600023FB603B1D184601F01E
:10030C00A7FB0346002B01D000F0AAF800BF503722
:10031C00BD4680BD80B584B000AF3B1D00221A6085
:10032C005A609A60184B194A1A60174B00229A604F
:10033C00154B01221A73144B00221A75124B4FF4F1
:10034C006022DA61104B00225A600F4B01221A61B5
:10035C000D4800F00BFA0346002B01D000F080F89A
:10036C0000237B600123BB600023FB603B1D19460F
:10037C00054800F0D3FA0346002B01D000F070F8CA
:10038C0000BF1037BD4680BD900000200024014006
:10039C0080B500AF114B124A1A60104B4FF4165235
:1003AC005A600E4B00229A600C4B0022DA600B4B09
:1003BC0000221A61094B0C225A61084B00229A61E7
:1003CC00064B0022DA61054801F0F8FB0346002BCE
:1003DC0001D000F045F800BF80BD00BFC400002074
:1003EC000044004080B586B000AF07F1080300223E
:1003FC001A605A609A60DA60174B9B69164A43F090
:10040C0004039361144B9B6903F004037B607B68CA
:10041C0000222021114800F0F5FE2023BB600123AF
:10042C00FB6000233B6102237B6107F10803194643
:10043C000A4800F06DFD4023BB600223FB600223E1
:10044C007B6107F108031946044800F061FD00BF09
:10045C001837BD4680BD00BF0010024000080140A7
:10046C0080B400AF72B600BFFEE7000080B485B068
:10047C0000AF154B9B69144A43F001039361124B77
:10048C009B6903F00103BB60BB680F4BDB690E4A31
:10049C0043F08053D3610C4BDB6903F080537B60DA
:1004AC007B680A4B5B68FB60FB6823F0E063FB60D6
:1004BC00FB6843F08063FB60044AFB68536000BF39
:1004CC001437BD4680BC704700100240000001404C
:1004DC0080B588B000AF786007F1100300221A6075
:1004EC005A609A60DA607B681B68144A934221D187
:1004FC00134B9B69124A43F400739361104B9B6935
:10050C0003F40073FB60FB680D4B9B690C4A43F0D2
:10051C00040393610A4B9B6903F00403BB60BB6843
:10052C0001233B6103237B6107F110031946054846
:10053C0000F0EEFC00BF2037BD4680BD002401401A
:10054C00001002400008014080B588B000AF786010
:10055C0007F1100300221A605A609A60DA607B6817
:10056C001B681F4A934237D11E4BDB691D4A43F46B
:10057C000033D3611B4BDB6903F40033FB60FB6876
:10058C00184B9B69174A43F004039361154B9B6905
:10059C0003F00403BB60BB6804233B6102237B6153
:1005AC000323FB6107F1100319460F4800F0B0FC60
:1005BC0008233B6100237B610023BB6107F110031F
:1005CC001946094800F0A4FC00220021262000F066
:1005DC00B6FB262000F0CFFB00BF2037BD4680BD08
:1005EC0000440040001002400008014080B400AFFD
:1005FC00FEE780B400AFFEE780B400AFFEE780B446
:10060C0000AFFEE780B400AFFEE780B400AF00BFE0
:10061C00BD4680BC704780B400AF00BFBD4680BCF7
:10062C00704780B400AF00BFBD4680BC704780B53A
:10063C0000AF00F07FF800BF80BD000080B500AFB8
:10064C00024801F0BBFB00BF80BD00BFC40000200E
:10065C0080B400AF00BFBD4680BC7047FFF7F8FF09
:10066C000B480C490C4A002302E0D458C450043304
:10067C00C4188C42F9D3094A094C002301E01360D9
:10068C000432A242FBD302F003F9FFF7D9FD704705
:10069C00000000200C0000204C2900080C00002059
:1006AC0010010020FEE7000080B500AF084B1B686E
:1006BC00074A43F010031360032000F035FB0F20B2
:1006CC0000F008F8FFF7D2FE0023184680BD00BFEB
:1006DC000020024080B582B000AF7860124B1A68DF
:1006EC00124B1B7819464FF47A73B3FBF1F3B2FB40
:1006FC00F3F3184600F04DFB0346002B01D0012309
:10070C000EE07B680F2B0AD8002279684FF0FF307F
:10071C0000F015FB064A7B681360002300E0012300
:10072C0018460837BD4680BD000000200800002098
:10073C000400002080B400AF054B1B781A46054B13
:10074C001B681344034A136000BFBD4680BC70474E
:10075C00080000200C01002080B400AF024B1B6885
:10076C001846BD4680BC70470C01002080B586B091
:10077C0000AF78600023FB7500233B610023BB6056
:10078C000023FB607B68002B01D10123BEE07B685A
:10079C009B68002B7B689B6A002B09D17B6800222D
:1007AC00DA627B68002283F824207868FFF790FED9
:1007BC00786800F0ABF90346FB757B689B6A03F025
:1007CC001003002B40F09980FB7D002B40F09580AE
:1007DC007B689B6A23F4885323F0020343F00202E4
:1007EC007B689A627B685A687B68DB691A437B6812
:1007FC001B7B5B001343BA681343BB607B689B682D
:10080C00B3F5807F03D07B689B68012B02D14FF43A
:10081C00807300E000233A6913433B617B681B7DC6
:10082C00012B19D17B681B7B002B09D17B689B6941
:10083C00013B5A033B69134343F400633B610BE0F8
:10084C007B689B6A43F020027B689A627B68DB6A58
:10085C0043F001027B68DA627B681B685B6823F4F7
:10086C0069417B681B683A690A435A607B681B685C
:10087C009A68284B13407A681268B9680B439360E6
:10088C007B689B68B3F5807F03D07B689B68012BEA
:10089C0004D17B681B69013B1B05FB607B681B68F3
:1008AC00DB6A23F470017B681B68FA680A43DA621E
:1008BC007B681B689A68184B1340BA689A420BD134
:1008CC007B680022DA627B689B6A23F0030343F0A7
:1008DC0001027B689A6218E07B689B6A23F0120322
:1008EC0043F010027B689A627B68DB6A43F001027A
:1008FC007B68DA620123FB7507E07B689B6A43F037
:10090C0010027B689A620123FB75FB7D1846183731
:10091C00BD4680BDFDF7E1FFFE0E1FFF80B485B024
:10092C0000AF786039600023FB730023BB607B68E9
:10093C0093F82430012B01D10223DCE07B680122E7
:10094C0083F824203B685B68062B1CD87B681B68EB
:10095C00596B3B685A6813469B001344053B1F2296
:10096C0002FA03F3DB4319403B6818683B685A688A
:10097C0013469B001344053B00FA03F27B681B688B
:10098C000A435A633CE03B685B680C2B1CD87B68C1
:10099C001B68196B3B685A6813469B001344233B36
:1009AC001F2202FA03F3DB4319403B6818683B68CB
:1009BC005A6813469B001344233B00FA03F27B68EE
:1009CC001B680A431A631BE07B681B68D96A3B6887
:1009DC005A6813469B001344413B1F2202FA03F34F
:1009EC00DB4319403B6818683B685A6813469B0008
:1009FC001344413B00FA03F27B681B680A43DA623A
:100A0C003B681B68092B1CD97B681B68D9683B6841
:100A1C001A6813465B0013441E3B072202FA03F3C9
:100A2C00DB4319403B6898683B681A6813465B00C7
:100A3C0013441E3B00FA03F27B681B680A43DA601E
:100A4C0019E07B681B6819693B681A6813465B00E0
:100A5C001344072202FA03F3DB4319403B689868FE
:100A6C003B681A6813465B00134400FA03F27B6878
:100A7C001B680A431A613B681B68102B03D03B6848
:100A8C001B68112B32D17B681B681D4A934225D100
:100A9C007B681B689B6803F40003002B26D17B68E2
:100AAC001B689A687B681B6842F400029A603B687A
:100ABC001B68102B1AD1134B1B68134AA2FB032380
:100ACC009A0C13469B0013445B00BB6002E0BB68AE
:100ADC00013BBB60BB68002BF9D107E07B689B6ACC
:100AEC0043F020027B689A620123FB737B6800222F
:100AFC0083F82420FB7B18461437BD4680BC704716
:100B0C00002401400000002083DE1B4380B584B02C
:100B1C0000AF78600023FB607B681B689B6803F068
:100B2C000103012B2ED17B681B689A687B681B68BC
:100B3C0022F001029A60FFF70FFEF8601BE0FFF74E
:100B4C000BFE0246FB68D31A022B14D97B681B6878
:100B5C009B6803F00103012B0DD17B689B6A43F06A
:100B6C0010027B689A627B68DB6A43F001027B6847
:100B7C00DA62012307E07B681B689B6803F00103C2
:100B8C00012BDCD0002318461037BD4680BD000079
:100B9C0080B485B000AF78607B6803F00703FB601E
:100BAC000C4BDB68BB60BA684FF6FF031340BB60AD
:100BBC00FB681A02BB68134343F0BF6343F4003372
:100BCC00BB60044ABB68D36000BF1437BD4680BC11
:100BDC00704700BF00ED00E080B400AF044BDB6851
:100BEC001B0A03F007031846BD4680BC704700BFC4
:100BFC0000ED00E080B483B000AF0346FB7197F9C1
:100C0C000730002B0BDBFB7903F01F02064997F929
:100C1C0007305B09012000FA02F241F8232000BFE3
:100C2C000C37BD4680BC704700E100E080B483B057
:100C3C0000AF03463960FB7197F90730002B0ADBD4
:100C4C003B68DAB20C4997F907301201D2B20B4467
:100C5C0083F800230AE03B68DAB20849FB7903F019
:100C6C000F03043B1201D2B20B441A7600BF0C37AF
:100C7C00BD4680BC704700BF00E100E000ED00E025
:100C8C0080B489B000AFF860B9607A60FB6803F09B
:100C9C000703FB61FB69C3F10703042B28BF042383
:100CAC00BB61FB690433062B02D9FB69033B00E0F3
:100CBC0000237B614FF0FF32BB6902FA03F3DA4386
:100CCC00BB681A407B699A404FF0FF317B6901FA8F
:100CDC0003F3D9437B680B40134318462437BD46B6
:100CEC0080BC704780B582B000AF78607B68013BF8
:100CFC00B3F1807F01D301230FE00A4A7B68013BEB
:100D0C0053600F214FF0FF30FFF790FF054B00228F
:100D1C009A60044B07221A60002318460837BD4618
:100D2C0080BD00BF10E000E080B582B000AF7860FD
:100D3C007868FFF72DFF00BF0837BD4680BD80B532
:100D4C0086B000AF0346B9607A60FB7300237B6109
:100D5C00FFF742FF78617A68B9687869FFF790FF0E
:100D6C00024697F90F3011461846FFF75FFF00BF98
:100D7C001837BD4680BD80B582B000AF0346FB710D
:100D8C0097F907301846FFF735FF00BF0837BD4607
:100D9C0080BD80B582B000AF78607868FFF7A2FFA5
:100DAC00034618460837BD4680BD80B485B000AFF9
:100DBC0078600023FB737B6893F82130DBB2022B45
:100DCC0008D07B6804229A637B68002283F8202079
:100DDC00012320E07B681B681A687B681B6822F083
:100DEC000E021A607B681B681A687B681B6822F00D
:100DFC0001021A607B681A6C7B68DB6B012101FABB
:100E0C0002F25A607B68012283F821207B68002261
:100E1C0083F82020FB7B18461437BD4680BC7047F6
:100E2C0080B584B000AF78600023FB737B6893F8C7
:100E3C002130DBB2022B05D07B6804229A6301239C
:100E4C00FB7351E07B681B681A687B681B6822F097
:100E5C000E021A607B681B681A687B681B6822F09C
:100E6C0001021A607B681B68224A934229D07B6876
:100E7C001B68214A934222D07B681B681F4A93420D
:100E8C001AD07B681B681E4A934212D07B681B6881
:100E9C001C4A93420AD07B681B681B4A934202D1BE
:100EAC004FF480130EE04FF080730BE04FF480335F
:100EBC0008E04FF4805305E04FF4807302E01023F8
:100ECC0000E00123114A53607B68012283F8212042
:100EDC007B68002283F820207B685B6B002B03D09F
:100EEC007B685B6B78689847FB7B18461037BD4670
:100EFC0080BD00BF080002401C00024030000240D0
:100F0C0044000240580002406C00024000000240C5
:100F1C0080B48BB000AF7860396000237B62002313
:100F2C003B6248E101227B6A02FA03F3FB613B68F6
:100F3C001B68FA691340BB61BA69FB699A4240F0BD
:100F4C0037813B685B68A34A93425ED0A14A9342C7
:100F5C0075D8A14A934258D09F4A93426FD89F4A62
:100F6C00934252D09D4A934269D89D4A93424CD0A9
:100F7C009B4A934263D89B4A934246D0994A9342E8
:100F8C005DD8122B2AD8122B59D801A252F823F073
:100F9C0017100008F10F0008031000084510000896
:100FAC004B1000084B1000084B1000084B100008A9
:100FBC004B1000084B1000084B1000084B10000899
:100FCC004B1000084B1000084B1000084B10000889
:100FDC004B100008F90F00080D100008824A9342CC
:100FEC0013D02CE03B68DB683B6229E03B68DB6894
:100FFC0004333B6224E03B68DB6808333B621FE050
:10100C003B68DB680C333B621AE03B689B68002B47
:10101C0002D104233B6213E03B689B68012B05D192
:10102C0008233B627B68FA691A6109E008233B627A
:10103C007B68FA695A6103E000233B6200E000BF61
:10104C00BB69FF2B01D87B6801E07B6804337B61B3
:10105C00BB69FF2B02D87B6A9B0002E07B6A083BD2
:10106C009B003B617B691A680F213B6901FA03F312
:10107C00DB431A40396A3B6901FA03F31A437B6973
:10108C001A603B685B6803F08053002B00F0908083
:10109C00564B9B69554A43F001039361534B9B6933
:1010AC0003F00103BB60BB68514A7B6A9B080233A7
:1010BC0052F82330FB607B6A03F003039B000F2282
:1010CC0002FA03F3DB43FA681340FB607B68494A7E
:1010DC0093420DD07B68484A934207D07B68474ABD
:1010EC00934201D1022304E0032302E0012300E038
:1010FC0000237A6A02F0030292009340FA681343C9
:10110C00FB603B497B6A9B080233FA6841F8232059
:10111C003B685B6803F48013002B06D0384B9A684D
:10112C003749BB6913438B6006E0354B9A68BB6942
:10113C00DB43334913408B603B685B6803F400135B
:10114C00002B06D02E4BDA682D49BB691343CB60BC
:10115C0006E02B4BDA68BB69DB4329491340CB60B3
:10116C003B685B6803F40033002B06D0244B5A68B1
:10117C002349BB6913434B6006E0214B5A68BB699A
:10118C00DB431F4913404B603B685B6803F48033BF
:10119C00002B06D01A4B1A681949BB6913430B6014
:1011AC0006E0174B1A68BB69DB43154913400B600B
:1011BC007B6A01337B623B681A687B6A22FA03F311
:1011CC00002B7FF4AFAE00BF00BF2C37BD4680BCF8
:1011DC00704700BF000032100000311000002210D8
:1011EC00000021100000121000001110001002402D
:1011FC000000014000080140000C014000100140BB
:10120C000004014080B483B000AF78600B467B8053
:10121C0013467B707B78002B03D07A887B681A612D
:10122C0003E07B881A047B681A6100BF0C37BD464B
:10123C0080BC704780B586B000AF78607B68002BAF
:10124C0001D101236CE27B681B6803F00103002BC6
:10125C0000F08780924B5B6803F00C03042B0CD0DE
:10126C008F4B5B6803F00C03082B12D18C4B5B6823
:10127C0003F48033B3F5803F0BD1894B1B6803F427
:10128C000033002B6CD07B685B68002B68D101238A
:10129C0046E27B685B68B3F5803F06D1804B1B68E8
:1012AC007F4A43F4803313602EE07B685B68002B2D
:1012BC000CD17B4B1B687A4A23F480331360784B38
:1012CC001B68774A23F4802313601DE07B685B68FE
:1012DC00B3F5A02F0CD1724B1B68714A43F48023D9
:1012EC0013606F4B1B686E4A43F4803313600BE042
:1012FC006B4B1B686A4A23F480331360684B1B6882
:10130C00674A23F4802313607B685B68002B13D03F
:10131C00FFF722FA386108E0FFF71EFA02463B6934
:10132C00D31A642B01D90323FAE15D4B1B6803F438
:10133C000033002BF0D014E0FFF70EFA386108E010
:10134C00FFF70AFA02463B69D31A642B01D903232F
:10135C00E6E1534B1B6803F40033002BF0D100E0A3
:10136C0000BF7B681B6803F00203002B63D04C4B5F
:10137C005B6803F00C03002B0BD0494B5B6803F04C
:10138C000C03082B1CD1464B5B6803F48033002BF9
:10139C0016D1434B1B6803F00203002B05D07B686E
:1013AC001B69012B01D00123BAE13D4B1B6823F0D3
:1013BC00F8027B685B69DB00394913430B603AE048
:1013CC007B681B69002B20D0364B01221A60FFF77B
:1013DC00C3F9386108E0FFF7BFF902463B69D31A3D
:1013EC00022B01D903239BE12D4B1B6803F0020355
:1013FC00002BF0D02A4B1B6823F0F8027B685B694A
:10140C00DB00274913430B6015E0264B00221A60C2
:10141C00FFF7A2F9386108E0FFF79EF902463B6935
:10142C00D31A022B01D903237AE11D4B1B6803F05D
:10143C000203002BF0D17B681B6803F00803002B20
:10144C003AD07B689B69002B19D0174B01221A608C
:10145C00FFF782F9386108E0FFF77EF902463B6935
:10146C00D31A022B01D903235AE10D4B5B6A03F00B
:10147C000203002BF0D0012000F0CCFA1CE00A4B48
:10148C0000221A60FFF768F938610FE0FFF764F982
:10149C0002463B69D31A022B08D9032340E100BF53
:1014AC000010024000004242800442429E4B5B6AA4
:1014BC0003F00203002BE9D17B681B6803F00403E3
:1014CC00002B00F0A6800023FB75974BDB6903F023
:1014DC008053002B0DD1944BDB69934A43F080531E
:1014EC00D361914BDB6903F08053BB60BB68012374
:1014FC00FB758E4B1B6803F48073002B18D18B4B40
:10150C001B688A4A43F480731360FFF725F938612E
:10151C0008E0FFF721F902463B69D31A642B01D985
:10152C000323FDE0814B1B6803F48073002BF0D088
:10153C007B68DB68012B06D17B4B1B6A7A4A43F034
:10154C00010313622DE07B68DB68002B0CD1764B1A
:10155C001B6A754A23F001031362734B1B6A724AB0
:10156C0023F0040313621CE07B68DB68052B0CD1B1
:10157C006D4B1B6A6C4A43F0040313626A4B1B6A83
:10158C00694A43F0010313620BE0674B1B6A664A1E
:10159C0023F001031362644B1B6A634A23F00403B8
:1015AC0013627B68DB68002B15D0FFF7D5F8386128
:1015BC000AE0FFF7D1F802463B69D31A41F28832B0
:1015CC00934201D90323ABE0574B1B6A03F0020390
:1015DC00002BEED014E0FFF7BFF838610AE0FFF7FC
:1015EC00BBF802463B69D31A41F28832934201D9C7
:1015FC00032395E04C4B1B6A03F00203002BEED146
:10160C00FB7D012B05D1484BDB69474A23F0805306
:10161C00D3617B68DB69002B00F08180424B5B68F7
:10162C0003F00C03082B61D07B68DB69022B46D1DD
:10163C003F4B00221A60FFF78FF8386108E0FFF784
:10164C008BF802463B69D31A022B01D9032367E0BE
:10165C00354B1B6803F00073002BF0D17B681B6AC1
:10166C00B3F5803F08D1304B5B6823F400327B68C4
:10167C009B682D4913434B602B4B5B6823F474120E
:10168C007B68196A7B685B6A0B43274913434B6081
:10169C00274B01221A60FFF75FF8386108E0FFF76B
:1016AC005BF802463B69D31A022B01D9032337E0BE
:1016BC001D4B1B6803F00073002BF0D02FE01C4B6C
:1016CC0000221A60FFF748F8386108E0FFF744F889
:1016DC0002463B69D31A022B01D9032320E0124B9B
:1016EC001B6803F00073002BF0D118E07B68DB69FA
:1016FC00012B01D1012313E00B4B5B68FB60FB68F2
:10170C0003F480327B681B6A9A4206D1FB6803F4AF
:10171C0070127B685B6A9A4201D0012300E00023BF
:10172C0018461837BD4680BD0010024000700040BE
:10173C006000424280B584B000AF786039607B684D
:10174C00002B01D10123D0E06A4B1B6803F0070387
:10175C003A689A4210D9674B1B6823F00702654917
:10176C003B6813430B60634B1B6803F007033A6839
:10177C009A4201D00123B8E07B681B6803F0020396
:10178C00002B20D07B681B6803F00403002B05D0D2
:10179C00594B5B68584A43F4E06353607B681B68A1
:1017AC0003F00803002B05D0534B5B68524A43F4FB
:1017BC0060535360504B5B6823F0F0027B689B686E
:1017CC004D4913434B607B681B6803F00103002BEE
:1017DC0040D07B685B68012B07D1474B1B6803F437
:1017EC000033002B15D101237FE07B685B68022B53
:1017FC0007D1414B1B6803F00073002B09D1012367
:10180C0073E03D4B1B6803F00203002B01D1012355
:10181C006BE0394B5B6823F003027B685B683649ED
:10182C0013434B60FEF798FFF8600AE0FEF794FF55
:10183C000246FB68D31A41F28832934201D9032342
:10184C0053E02D4B5B6803F00C027B685B689B00DC
:10185C009A42EBD1274B1B6803F007033A689A4274
:10186C0010D2244B1B6823F0070222493B68134318
:10187C000B60204B1B6803F007033A689A4201D0B7
:10188C00012332E07B681B6803F00403002B08D0B3
:10189C00194B5B6823F4E0627B68DB6816491343E1
:1018AC004B607B681B6803F00803002B09D0124BBC
:1018BC005B6823F460527B681B69DB000E491343A1
:1018CC004B6000F021F802460B4B5B681B0903F0E0
:1018DC000F030A49CB5C22FA03F3094A1360094B44
:1018EC001B681846FEF7F6FE002318461037BD4657
:1018FC0080BD00BF002002400010024018290008E3
:10190C00000000200400002080B487B000AF00234A
:10191C00FB600023BB6000237B6100237B60002302
:10192C003B611E4B5B68FB60FB6803F00C03042BF4
:10193C0002D0082B03D027E0194B3B6127E0FB6852
:10194C009B0C03F00F03174AD35C7B60FB6803F41A
:10195C008033002B10D0114B5B685B0C03F0010340
:10196C00114AD35CBB607B680D4A02FB03F2BB6877
:10197C00B2FBF3F37B6104E07B680C4A02FB03F3DC
:10198C007B617B693B6102E0054B3B6100BF3B69BE
:10199C0018461C37BD4680BC704700BF0010024083
:1019AC0000127A00302900084029000800093D0087
:1019BC0080B400AF024B1B681846BD4680BC704714
:1019CC000000002080B500AFFFF7F2FF0246054B88
:1019DC005B681B0A03F007030349CB5C22FA03F391
:1019EC00184680BD001002402829000880B500AFC1
:1019FC00FFF7DEFF0246054B5B68DB0A03F00703CB
:101A0C000349CB5C22FA03F3184680BD0010024058
:101A1C002829000880B485B000AF78600A4B1B6899
:101A2C000A4AA2FB03235B0A7A6802FB03F3FB60FE
:101A3C0000BFFB685A1EFA60002BF9D100BF00BF33
:101A4C001437BD4680BC704700000020D34D621097
:101A5C0080B586B000AF786000233B610023FB604B
:101A6C007B681B6803F00103002B7DD00023FB7502
:101A7C004F4BDB6903F08053002B0DD14C4BDB69D2
:101A8C004B4A43F08053D361494BDB6903F08053DD
:101A9C00BB60BB680123FB75464B1B6803F480736A
:101AAC00002B18D1434B1B68424A43F480731360DC
:101ABC00FEF752FE386108E0FEF74EFE02463B6927
:101ACC00D31A642B01D903236DE03A4B1B6803F442
:101ADC008073002BF0D0364B1B6A03F44073FB6011
:101AEC00FB68002B2ED07B685B6803F44073FA68AC
:101AFC009A4227D02E4B1B6A23F44073FB602E4B6B
:101B0C0001221A602C4B00221A60294AFB681362CE
:101B1C00FB6803F00103002B14D0FEF71DFE3861A7
:101B2C000AE0FEF719FE02463B69D31A41F28832ED
:101B3C00934201D9032336E01D4B1B6A03F00203C9
:101B4C00002BEED01A4B1B6A23F440727B685B6847
:101B5C00174913430B62FB7D012B05D1144BDB6939
:101B6C00134A23F08053D3617B681B6803F0020394
:101B7C00002B08D00E4B5B6823F440427B689B68BB
:101B8C000B4913434B607B681B6803F01003002B5D
:101B9C0008D0074B5B6823F480027B68DB68044940
:101BAC0013434B60002318461837BD4680BD00BF59
:101BBC0000100240007000404004424280B582B0E8
:101BCC0000AF78607B68002B01D1012342E07B6879
:101BDC0093F84130DBB2002B06D17B68002283F8EE
:101BEC0040207868FEF7B0FC7B68242283F8412003
:101BFC007B681B68DA687B681B6822F40052DA6029
:101C0C00786800F0B7FD7B681B681A697B681B68F5
:101C1C0022F490421A617B681B685A697B681B68C6
:101C2C0022F02A025A617B681B68DA687B681B68A1
:101C3C0042F40052DA607B6800225A647B682022EE
:101C4C0083F841207B68202283F842207B680022A5
:101C5C005A63002318460837BD4680BD80B58AB04C
:101C6C0002AFF860B9603B601346FB8000237B61D8
:101C7C00FB6893F84130DBB2202B75D1BB68002B8D
:101C8C0002D0FB88002B01D101236EE0FB680022FF
:101C9C005A64FB68212283F84120FEF75DFD7861D0
:101CAC00FB68FA889A84FB68FA88DA84FB689B687C
:101CBC00B3F5805F08D1FB681B69002B04D10023AE
:101CCC00FB61BB68BB6103E0BB68FB610023BB61CC
:101CDC002EE03B6800937B6900228021F86800F0BD
:101CEC001CFB0346002B05D0FB68202283F8412007
:101CFC0003233AE0FB69002B0BD1BB691B881A4606
:101D0C00FB681B68C2F308025A60BB690233BB61F3
:101D1C0007E0FB691A78FB681B685A60FB690133A2
:101D2C00FB61FB68DB8C9BB2013B9AB2FB68DA84EB
:101D3C00FB68DB8C9BB2002BCBD13B6800937B699F
:101D4C0000224021F86800F0E8FA0346002B05D089
:101D5C00FB68202283F84120032306E0FB68202245
:101D6C0083F84120002300E0022318462037BD46AB
:101D7C0080BD80B584B000AFF860B9601346FB80BD
:101D8C00FB6893F84230DBB2202B12D1BB68002BDE
:101D9C0002D0FB88002B01D101230BE0FB68002251
:101DAC001A63FB881A46B968F86800F00FFB034603
:101DBC0000E0022318461037BD4680BD80B5BAB08E
:101DCC0000AF78607B681B681B68C7F8E4307B68E1
:101DDC001B68DB68C7F8E0307B681B685B69C7F879
:101DEC00DC300023C7F8D8300023C7F8D430D7F83C
:101DFC00E43003F00F03C7F8D830D7F8D830002BF5
:101E0C000FD1D7F8E43003F02003002B09D0D7F81A
:101E1C00E03003F02003002B03D0786800F0ECFBDB
:101E2C005BE2D7F8D830002B00F0DE80D7F8DC303E
:101E3C0003F00103002B06D1D7F8E03003F49073C4
:101E4C00002B00F0D180D7F8E43003F00103002B15
:101E5C000BD0D7F8E03003F48073002B05D07B68EF
:101E6C005B6C43F001027B685A64D7F8E43003F0F2
:101E7C000403002B0BD0D7F8DC3003F00103002B4C
:101E8C0005D07B685B6C43F002027B685A64D7F820
:101E9C00E43003F00203002B0BD0D7F8DC3003F056
:101EAC000103002B05D07B685B6C43F004027B685C
:101EBC005A64D7F8E43003F00803002B11D0D7F89C
:101ECC00E03003F02003002B05D1D7F8DC3003F011
:101EDC000103002B05D07B685B6C43F008027B6828
:101EEC005A647B685B6C002B00F0F281D7F8E4300D
:101EFC0003F02003002B08D0D7F8E03003F02003C8
:101F0C00002B02D0786800F077FB7B681B685B695C
:101F1C0003F04003002B14BF01230023DBB2C7F8EE
:101F2C00D4307B685B6C03F00803002B03D1D7F82B
:101F3C00D430002B4FD0786800F081FA7B681B6896
:101F4C005B6903F04003002B41D07B681B681433A2
:101F5C00C7F89C30D7F89C3053E8003FC7F898304E
:101F6C00D7F8983023F04003C7F8D0307B681B6853
:101F7C001433D7F8D020C7F8A820C7F8A430D7F866
:101F8C00A410D7F8A82041E80023C7F8A030D7F850
:101F9C00A030002BD9D17B68DB6B002B13D07B6876
:101FAC00DB6B7E4A5A637B68DB6B1846FEF738FFA7
:101FBC000346002B16D07B68DB6B5B6B7A68D26BAD
:101FCC00104698470EE0786800F093F90AE07868BC
:101FDC0000F08FF906E0786800F08BF97B6800223E
:101FEC005A6475E100BF73E17B681B6B012B40F0F9
:101FFC004F81D7F8E43003F01003002B00F0488138
:10200C00D7F8E03003F01003002B00F041810023DF
:10201C00BB607B681B681B68BB607B681B685B686C
:10202C00BB60BB687B681B685B6903F04003002BDB
:10203C0000F0B6807B68DB6B1B685B68A7F8BE3072
:10204C00B7F8BE30002B00F045817B689B8DB7F84C
:10205C00BE209A4280F03E817B68B7F8BE20DA85BC
:10206C007B68DB6B9B69202B00F088807B681B688E
:10207C000C33C7F88830D7F8883053E8003FC7F8DE
:10208C008430D7F8843023F48073C7F8B8307B6879
:10209C001B680C33D7F8B820C7F89420C7F89030D9
:1020AC00D7F89010D7F8942041E80023C7F88C306B
:1020BC00D7F88C30002BD9D17B681B6814337B6725
:1020CC007B6F53E8003F3B673B6F23F00103C7F87E
:1020DC00B4307B681B681433D7F8B420C7F8802061
:1020EC00FB67F96FD7F8802041E80023BB67BB6F13
:1020FC00002BE1D17B681B6814333B663B6E53E8C5
:10210C00003FFB65FB6D23F04003C7F8B0307B68E4
:10211C001B681433D7F8B020FA66BB66B96EFA6E3A
:10212C0041E800237B667B6E002BE3D17B68202289
:10213C0083F842207B6800221A637B681B680C338F
:10214C00FB64FB6C53E8003FBB64BB6C23F01003D7
:10215C00C7F8AC307B681B680C33D7F8AC20BA6579
:10216C007B65796DBA6D41E800233B653B6D002BB7
:10217C00E3D17B68DB6B1846FEF717FE7B68022207
:10218C005A637B689A8D7B68DB8D9BB2D31A9BB2AA
:10219C001946786800F0B6F89CE000BF0F250008DF
:1021AC007B689A8D7B68DB8D9BB2D31AA7F8CE30F7
:1021BC007B68DB8D9BB2002B00F08E80B7F8CE30A5
:1021CC00002B00F089807B681B680C33BB63BB6BF6
:1021DC0053E8003F7B637B6B23F49073C7F8C830E4
:1021EC007B681B680C33D7F8C8207A643B64396C65
:1021FC007A6C41E80023FB63FB6B002BE3D17B681B
:10220C001B6814337B627B6A53E8003F3B623B6A7A
:10221C0023F00103C7F8C4307B681B681433D7F86C
:10222C00C4203A63FB62F96A3A6B41E80023BB6253
:10223C00BB6A002BE3D17B68202283F842207B68A9
:10224C0000221A637B681B680C333B613B6953E8C3
:10225C00003FFB60FB6823F01003C7F8C0307B68BD
:10226C001B680C33D7F8C020FA61BB61B969FA69F5
:10227C0041E800237B617B69002BE3D17B68022260
:10228C005A63B7F8CE301946786800F03BF823E073
:10229C00D7F8E43003F08003002B09D0D7F8E030F6
:1022AC0003F08003002B03D0786800F03EF914E0B3
:1022BC00D7F8E43003F04003002B0ED0D7F8E03011
:1022CC0003F04003002B08D0786800F07DF904E09F
:1022DC0000BF02E000BF00E000BFE837BD4680BD94
:1022EC0080B483B000AF786000BF0C37BD4680BCB3
:1022FC00704780B483B000AF786000BF0C37BD4628
:10230C0080BC704780B483B000AF78600B467B8094
:10231C0000BF0C37BD4680BC704780B586B000AF9F
:10232C00F860B9603B601346FB713BE03B6AB3F16C
:10233C00FF3F37D0FEF710FA02463B68D31A3A6AD1
:10234C009A4202D33B6A002B01D103233AE0FB688B
:10235C001B68DB6803F00403002B23D0BB68802BC5
:10236C0020D0BB68402B1DD0FB681B681B6803F09A
:10237C000803082B16D100237B61FB681B681B68C4
:10238C007B61FB681B685B687B617B69F86800F0AC
:10239C0056F8FB6808225A64FB68002283F8402038
:1023AC0001230FE0FB681B681A68BB681340BA680E
:1023BC009A420CBF01230023DBB21A46FB799A42E6
:1023CC00B4D0002318461837BD4680BD80B485B004
:1023DC0000AFF860B9601346FB80FB68BA689A627C
:1023EC00FB68FA889A85FB68FA88DA85FB68002214
:1023FC005A64FB68222283F84220FB681B69002B7D
:10240C0007D0FB681B68DA68FB681B6842F48072B3
:10241C00DA60FB681B685A69FB681B6842F00102B2
:10242C005A61FB681B68DA68FB681B6842F0200283
:10243C00DA60002318461437BD4680BC704780B460
:10244C0095B000AF78607B681B680C337B637B6B4B
:10245C0053E8003F3B633B6B23F49073FB647B6856
:10246C001B680C33FA6C3A64FB63F96B3A6C41E809
:10247C000023BB63BB6B002BE5D17B681B6814335B
:10248C003B623B6A53E8003FFB61FB6923F00103AD
:10249C00BB647B681B681433BA6CFA62BB62B96AA2
:1024AC00FA6A41E800237B627B6A002BE5D17B68EA
:1024BC001B6B012B19D17B681B680C33FB60FB6811
:1024CC0053E8003FBB60BB6823F010037B647B6860
:1024DC001B680C337A6CBA617B617969BA6941E823
:1024EC0000233B613B69002BE5D17B68202283F8FC
:1024FC0042207B6800221A6300BF5437BD4680BC63
:10250C00704780B584B000AF78607B685B6AFB6015
:10251C00FB680022DA85FB680022DA84F868FFF792
:10252C00E8FE00BF1037BD4680BD80B485B000AF5B
:10253C0078607B6893F84130DBB2212B3ED17B680D
:10254C009B68B3F5805F14D17B681B69002B10D19D
:10255C007B681B6AFB60FB681B881A467B681B68E0
:10256C00C2F308025A607B681B6A9A1C7B681A6269
:10257C0008E07B681B6A591C7A6811621A787B68C0
:10258C001B685A607B68DB8C9BB2013B9BB27A6800
:10259C001946D184002B0FD17B681B68DA687B68E5
:1025AC001B6822F08002DA607B681B68DA687B6843
:1025BC001B6842F04002DA60002300E00223184658
:1025CC001437BD4680BC704780B582B000AF7860D0
:1025DC007B681B68DA687B681B6822F04002DA6053
:1025EC007B68202283F841207868FFF779FE00236E
:1025FC0018460837BD4680BD80B58CB000AF7860FA
:10260C007B6893F84230DBB2222B40F0AE807B68C3
:10261C009B68B3F5805F17D17B681B69002B13D1C6
:10262C000023FB627B689B6ABB627B681B685B68F0
:10263C009BB2C3F308039AB2BB6A1A807B689B6A8D
:10264C009A1C7B689A6226E07B689B6AFB6200237B
:10265C00BB627B689B68B3F5805F07D07B689B6827
:10266C00002B0AD17B681B69002B06D17B681B6889
:10267C005B68DAB2FB6A1A7008E07B681B685B68FF
:10268C00DBB203F07F03DAB2FB6A1A707B689B6AD9
:10269C005A1C7B689A627B68DB8D9BB2013B9BB2B8
:1026AC007A681946D185002B5DD17B681B68DA6886
:1026BC007B681B6822F02002DA607B681B68DA6892
:1026CC007B681B6822F48072DA607B681B685A692D
:1026DC007B681B6822F001025A617B68202283F818
:1026EC0042207B6800225A637B681B6B012B35D11F
:1026FC007B6800221A637B681B680C337B617B69E7
:10270C0053E8003F3B613B6923F010037B627B681D
:10271C001B680C337A6A3A62FB61F9693A6A41E8E0
:10272C000023BB61BB69002BE5D17B681B681B6870
:10273C0003F01003102B0AD10023FB607B681B688D
:10274C001B68FB607B681B685B68FB60FB687B68D5
:10275C009B8D19467868FFF7D5FD02E07868FDF788
:10276C0001FD002302E0002300E00223184630376D
:10277C00BD4680BD80B584B000AF78607B681B68B7
:10278C001B6923F440517B68DA687B681B680A4339
:10279C001A617B689A687B681B691A437B685B6962
:1027AC001343BB607B681B68DB6823F4B05323F0D6
:1027BC000C037A681268B9680B43D3607B681B689A
:1027CC005B6923F440717B689A697B681B680A43D8
:1027DC005A617B681B682C4A934203D1FFF706F9B8
:1027EC00F86002E0FFF7EEF8F860FA6813469B0019
:1027FC0013449A001A447B685B689B00B2FBF3F3AA
:10280C00224AA2FB03235B091901FA6813469B00B9
:10281C0013449A001A447B685B689B00B2FBF3F28A
:10282C001A4BA3FB02035B09642000FB03F3D31ACE
:10283C001B013233154AA2FB03235B0903F0F0039F
:10284C001944FA6813469B0013449A001A447B6897
:10285C005B689B00B2FBF3F20C4BA3FB02035B091E
:10286C00642000FB03F3D31A1B013233074AA2FB8B
:10287C0003235B0903F00F027B681B680A449A6010
:10288C0000BF1037BD4680BD003801401F85EB519D
:10289C0070B500260C4D0D4C641BA410A64209D13A
:1028AC0000F022F800260A4D0A4C641BA410A64224
:1028BC0005D170BD55F8043B98470136EEE755F845
:1028CC00043B98470136F2E74429000844290008E4
:1028DC00442900084829000803460244934200D1C9
:1028EC00704703F8011BF9E7F8B500BFF8BC08BC4A
:1028FC009E467047F8B500BFF8BC08BC9E467047B2
:10290C000A0D00004C4544204F4E00000000000012
:10291C000000000001020304060708090000000083
:10292C000102030402030405060708090A0B0C0D37
:08293C000E0F10100102000053
:042944003101000855
:042948000D01000875
:0C294C0000127A001000000001000000E2
:040000050800066980
:00000001FF
